{
  "_format": "hh-sol-artifact-1",
  "contractName": "FoodSupplyChain",
  "sourceName": "contracts/CropRegistry.sol",
  "abi": [
    {
      "anonymous": false,
      "inputs": [
        {
          "indexed": false,
          "internalType": "uint256",
          "name": "id",
          "type": "uint256"
        },
        {
          "indexed": false,
          "internalType": "string",
          "name": "name",
          "type": "string"
        },
        {
          "indexed": false,
          "internalType": "uint256",
          "name": "quantity",
          "type": "uint256"
        },
        {
          "indexed": false,
          "internalType": "uint256",
          "name": "price",
          "type": "uint256"
        },
        {
          "indexed": false,
          "internalType": "address",
          "name": "farmer",
          "type": "address"
        }
      ],
      "name": "CropRegistered",
      "type": "event"
    },
    {
      "anonymous": false,
      "inputs": [
        {
          "indexed": false,
          "internalType": "uint256",
          "name": "id",
          "type": "uint256"
        },
        {
          "indexed": false,
          "internalType": "address",
          "name": "buyer",
          "type": "address"
        }
      ],
      "name": "CropSold",
      "type": "event"
    },
    {
      "inputs": [
        {
          "internalType": "uint256",
          "name": "_id",
          "type": "uint256"
        }
      ],
      "name": "buyCrop",
      "outputs": [],
      "stateMutability": "payable",
      "type": "function"
    },
    {
      "inputs": [],
      "name": "cropCount",
      "outputs": [
        {
          "internalType": "uint256",
          "name": "",
          "type": "uint256"
        }
      ],
      "stateMutability": "view",
      "type": "function"
    },
    {
      "inputs": [
        {
          "internalType": "uint256",
          "name": "",
          "type": "uint256"
        }
      ],
      "name": "crops",
      "outputs": [
        {
          "internalType": "uint256",
          "name": "id",
          "type": "uint256"
        },
        {
          "internalType": "string",
          "name": "name",
          "type": "string"
        },
        {
          "internalType": "uint256",
          "name": "quantity",
          "type": "uint256"
        },
        {
          "internalType": "uint256",
          "name": "price",
          "type": "uint256"
        },
        {
          "internalType": "address",
          "name": "farmer",
          "type": "address"
        },
        {
          "internalType": "bool",
          "name": "sold",
          "type": "bool"
        }
      ],
      "stateMutability": "view",
      "type": "function"
    },
    {
      "inputs": [
        {
          "internalType": "uint256",
          "name": "_id",
          "type": "uint256"
        }
      ],
      "name": "getCrop",
      "outputs": [
        {
          "internalType": "uint256",
          "name": "",
          "type": "uint256"
        },
        {
          "internalType": "string",
          "name": "",
          "type": "string"
        },
        {
          "internalType": "uint256",
          "name": "",
          "type": "uint256"
        },
        {
          "internalType": "uint256",
          "name": "",
          "type": "uint256"
        },
        {
          "internalType": "address",
          "name": "",
          "type": "address"
        },
        {
          "internalType": "bool",
          "name": "",
          "type": "bool"
        }
      ],
      "stateMutability": "view",
      "type": "function"
    },
    {
      "inputs": [
        {
          "internalType": "string",
          "name": "_name",
          "type": "string"
        },
        {
          "internalType": "uint256",
          "name": "_quantity",
          "type": "uint256"
        },
        {
          "internalType": "uint256",
          "name": "_price",
          "type": "uint256"
        }
      ],
      "name": "registerCrop",
      "outputs": [],
      "stateMutability": "nonpayable",
      "type": "function"
    }
  ],
  "bytecode": "0x60806040526000805534801561001457600080fd5b50610f0a806100246000396000f3fe60806040526004361061004a5760003560e01c806370c9f1a51461004f5780638bc7fa9c14610091578063dfd55a2c146100d3578063e006b2ad146100fe578063eaf2a88a1461011a575b600080fd5b34801561005b57600080fd5b50610076600480360381019061007191906106d5565b610143565b604051610088969594939291906107fd565b60405180910390f35b34801561009d57600080fd5b506100b860048036038101906100b391906106d5565b610234565b6040516100ca969594939291906107fd565b60405180910390f35b3480156100df57600080fd5b506100e86103b5565b6040516100f59190610865565b60405180910390f35b610118600480360381019061011391906106d5565b6103bb565b005b34801561012657600080fd5b50610141600480360381019061013c91906109b5565b610534565b005b600160205280600052604060002060009150905080600001549080600101805461016c90610a53565b80601f016020809104026020016040519081016040528092919081815260200182805461019890610a53565b80156101e55780601f106101ba576101008083540402835291602001916101e5565b820191906000526020600020905b8154815290600101906020018083116101c857829003601f168201915b5050505050908060020154908060030154908060040160009054906101000a900473ffffffffffffffffffffffffffffffffffffffff16908060040160149054906101000a900460ff16905086565b600060606000806000806000600160008981526020019081526020016000206040518060c00160405290816000820154815260200160018201805461027890610a53565b80601f01602080910402602001604051908101604052809291908181526020018280546102a490610a53565b80156102f15780601f106102c6576101008083540402835291602001916102f1565b820191906000526020600020905b8154815290600101906020018083116102d457829003601f168201915b5050505050815260200160028201548152602001600382015481526020016004820160009054906101000a900473ffffffffffffffffffffffffffffffffffffffff1673ffffffffffffffffffffffffffffffffffffffff1673ffffffffffffffffffffffffffffffffffffffff1681526020016004820160149054906101000a900460ff1615151515815250509050806000015181602001518260400151836060015184608001518560a001519650965096509650965096505091939550919395565b60005481565b60006001600083815260200190815260200160002090508060040160149054906101000a900460ff1615610424576040517f08c379a000000000000000000000000000000000000000000000000000000000815260040161041b90610ad0565b60405180910390fd5b806003015434101561046b576040517f08c379a000000000000000000000000000000000000000000000000000000000815260040161046290610b3c565b60405180910390fd5b60018160040160146101000a81548160ff0219169083151502179055508060040160009054906101000a900473ffffffffffffffffffffffffffffffffffffffff1673ffffffffffffffffffffffffffffffffffffffff166108fc82600301549081150290604051600060405180830381858888f193505050501580156104f6573d6000803e3d6000fd5b507f5f0db837eba8317ea73106d4605a928d164134474e49f00073f814c0a58bfd3b8233604051610528929190610b5c565b60405180910390a15050565b60008081548092919061054690610bb4565b91905055506040518060c0016040528060005481526020018481526020018381526020018281526020013373ffffffffffffffffffffffffffffffffffffffff1681526020016000151581525060016000805481526020019081526020016000206000820151816000015560208201518160010190816105c69190610da8565b50604082015181600201556060820151816003015560808201518160040160006101000a81548173ffffffffffffffffffffffffffffffffffffffff021916908373ffffffffffffffffffffffffffffffffffffffff16021790555060a08201518160040160146101000a81548160ff0219169083151502179055509050507f73bd3f3190acf3da883da43acb93b7d9dd15be9e4a72baceed6e0b72395110da6000548484843360405161067e959493929190610e7a565b60405180910390a1505050565b6000604051905090565b600080fd5b600080fd5b6000819050919050565b6106b28161069f565b81146106bd57600080fd5b50565b6000813590506106cf816106a9565b92915050565b6000602082840312156106eb576106ea610695565b5b60006106f9848285016106c0565b91505092915050565b61070b8161069f565b82525050565b600081519050919050565b600082825260208201905092915050565b60005b8381101561074b578082015181840152602081019050610730565b60008484015250505050565b6000601f19601f8301169050919050565b600061077382610711565b61077d818561071c565b935061078d81856020860161072d565b61079681610757565b840191505092915050565b600073ffffffffffffffffffffffffffffffffffffffff82169050919050565b60006107cc826107a1565b9050919050565b6107dc816107c1565b82525050565b60008115159050919050565b6107f7816107e2565b82525050565b600060c0820190506108126000830189610702565b81810360208301526108248188610768565b90506108336040830187610702565b6108406060830186610702565b61084d60808301856107d3565b61085a60a08301846107ee565b979650505050505050565b600060208201905061087a6000830184610702565b92915050565b600080fd5b600080fd5b7f4e487b7100000000000000000000000000000000000000000000000000000000600052604160045260246000fd5b6108c282610757565b810181811067ffffffffffffffff821117156108e1576108e061088a565b5b80604052505050565b60006108f461068b565b905061090082826108b9565b919050565b600067ffffffffffffffff8211156109205761091f61088a565b5b61092982610757565b9050602081019050919050565b82818337600083830152505050565b600061095861095384610905565b6108ea565b90508281526020810184848401111561097457610973610885565b5b61097f848285610936565b509392505050565b600082601f83011261099c5761099b610880565b5b81356109ac848260208601610945565b91505092915050565b6000806000606084860312156109ce576109cd610695565b5b600084013567ffffffffffffffff8111156109ec576109eb61069a565b5b6109f886828701610987565b9350506020610a09868287016106c0565b9250506040610a1a868287016106c0565b9150509250925092565b7f4e487b7100000000000000000000000000000000000000000000000000000000600052602260045260246000fd5b60006002820490506001821680610a6b57607f821691505b602082108103610a7e57610a7d610a24565b5b50919050565b7f416c726561647920736f6c640000000000000000000000000000000000000000600082015250565b6000610aba600c8361071c565b9150610ac582610a84565b602082019050919050565b60006020820190508181036000830152610ae981610aad565b9050919050565b7f4e6f7420656e6f756768207061796d656e740000000000000000000000000000600082015250565b6000610b2660128361071c565b9150610b3182610af0565b602082019050919050565b60006020820190508181036000830152610b5581610b19565b9050919050565b6000604082019050610b716000830185610702565b610b7e60208301846107d3565b9392505050565b7f4e487b7100000000000000000000000000000000000000000000000000000000600052601160045260246000fd5b6000610bbf8261069f565b91507fffffffffffffffffffffffffffffffffffffffffffffffffffffffffffffffff8203610bf157610bf0610b85565b5b600182019050919050565b60008190508160005260206000209050919050565b60006020601f8301049050919050565b600082821b905092915050565b600060088302610c5e7fffffffffffffffffffffffffffffffffffffffffffffffffffffffffffffffff82610c21565b610c688683610c21565b95508019841693508086168417925050509392505050565b6000819050919050565b6000610ca5610ca0610c9b8461069f565b610c80565b61069f565b9050919050565b6000819050919050565b610cbf83610c8a565b610cd3610ccb82610cac565b848454610c2e565b825550505050565b600090565b610ce8610cdb565b610cf3818484610cb6565b505050565b5b81811015610d1757610d0c600082610ce0565b600181019050610cf9565b5050565b601f821115610d5c57610d2d81610bfc565b610d3684610c11565b81016020851015610d45578190505b610d59610d5185610c11565b830182610cf8565b50505b505050565b600082821c905092915050565b6000610d7f60001984600802610d61565b1980831691505092915050565b6000610d988383610d6e565b9150826002028217905092915050565b610db182610711565b67ffffffffffffffff811115610dca57610dc961088a565b5b610dd48254610a53565b610ddf828285610d1b565b600060209050601f831160018114610e125760008415610e00578287015190505b610e0a8582610d8c565b865550610e72565b601f198416610e2086610bfc565b60005b82811015610e4857848901518255600182019150602085019450602081019050610e23565b86831015610e655784890151610e61601f891682610d6e565b8355505b6001600288020188555050505b505050505050565b600060a082019050610e8f6000830188610702565b8181036020830152610ea18187610768565b9050610eb06040830186610702565b610ebd6060830185610702565b610eca60808301846107d3565b969550505050505056fea264697066735822122087aaf568cbcc9ca9370667ad29b5c35ff84d5dfd09e2ea9fbc04868264d6fc2a64736f6c63430008140033",
  "linkReferences": {},
  "deployedLinkReferences": {}
}